{
  "_format": "hh-sol-artifact-1",
  "contractName": "ChainNFT",
  "sourceName": "contracts/OnChainNFT.sol",
  "abi": [
    {
      "inputs": [],
      "stateMutability": "nonpayable",
      "type": "constructor"
    },
    {
      "anonymous": false,
      "inputs": [
        {
          "indexed": true,
          "internalType": "address",
          "name": "owner",
          "type": "address"
        },
        {
          "indexed": true,
          "internalType": "address",
          "name": "approved",
          "type": "address"
        },
        {
          "indexed": true,
          "internalType": "uint256",
          "name": "tokenId",
          "type": "uint256"
        }
      ],
      "name": "Approval",
      "type": "event"
    },
    {
      "anonymous": false,
      "inputs": [
        {
          "indexed": true,
          "internalType": "address",
          "name": "owner",
          "type": "address"
        },
        {
          "indexed": true,
          "internalType": "address",
          "name": "operator",
          "type": "address"
        },
        {
          "indexed": false,
          "internalType": "bool",
          "name": "approved",
          "type": "bool"
        }
      ],
      "name": "ApprovalForAll",
      "type": "event"
    },
    {
      "anonymous": false,
      "inputs": [
        {
          "indexed": false,
          "internalType": "uint256",
          "name": "_fromTokenId",
          "type": "uint256"
        },
        {
          "indexed": false,
          "internalType": "uint256",
          "name": "_toTokenId",
          "type": "uint256"
        }
      ],
      "name": "BatchMetadataUpdate",
      "type": "event"
    },
    {
      "anonymous": false,
      "inputs": [
        {
          "indexed": false,
          "internalType": "uint256",
          "name": "_tokenId",
          "type": "uint256"
        }
      ],
      "name": "MetadataUpdate",
      "type": "event"
    },
    {
      "anonymous": false,
      "inputs": [
        {
          "indexed": false,
          "internalType": "uint256",
          "name": "tokenId",
          "type": "uint256"
        }
      ],
      "name": "Minted",
      "type": "event"
    },
    {
      "anonymous": false,
      "inputs": [
        {
          "indexed": true,
          "internalType": "address",
          "name": "previousOwner",
          "type": "address"
        },
        {
          "indexed": true,
          "internalType": "address",
          "name": "newOwner",
          "type": "address"
        }
      ],
      "name": "OwnershipTransferred",
      "type": "event"
    },
    {
      "anonymous": false,
      "inputs": [
        {
          "indexed": true,
          "internalType": "address",
          "name": "from",
          "type": "address"
        },
        {
          "indexed": true,
          "internalType": "address",
          "name": "to",
          "type": "address"
        },
        {
          "indexed": true,
          "internalType": "uint256",
          "name": "tokenId",
          "type": "uint256"
        }
      ],
      "name": "Transfer",
      "type": "event"
    },
    {
      "inputs": [
        {
          "internalType": "address",
          "name": "to",
          "type": "address"
        },
        {
          "internalType": "uint256",
          "name": "tokenId",
          "type": "uint256"
        }
      ],
      "name": "approve",
      "outputs": [],
      "stateMutability": "nonpayable",
      "type": "function"
    },
    {
      "inputs": [
        {
          "internalType": "address",
          "name": "owner",
          "type": "address"
        }
      ],
      "name": "balanceOf",
      "outputs": [
        {
          "internalType": "uint256",
          "name": "",
          "type": "uint256"
        }
      ],
      "stateMutability": "view",
      "type": "function"
    },
    {
      "inputs": [
        {
          "internalType": "string",
          "name": "imageURI",
          "type": "string"
        }
      ],
      "name": "formatTokenURI",
      "outputs": [
        {
          "internalType": "string",
          "name": "",
          "type": "string"
        }
      ],
      "stateMutability": "pure",
      "type": "function"
    },
    {
      "inputs": [
        {
          "internalType": "uint256",
          "name": "tokenId",
          "type": "uint256"
        }
      ],
      "name": "getApproved",
      "outputs": [
        {
          "internalType": "address",
          "name": "",
          "type": "address"
        }
      ],
      "stateMutability": "view",
      "type": "function"
    },
    {
      "inputs": [
        {
          "internalType": "address",
          "name": "owner",
          "type": "address"
        },
        {
          "internalType": "address",
          "name": "operator",
          "type": "address"
        }
      ],
      "name": "isApprovedForAll",
      "outputs": [
        {
          "internalType": "bool",
          "name": "",
          "type": "bool"
        }
      ],
      "stateMutability": "view",
      "type": "function"
    },
    {
      "inputs": [
        {
          "internalType": "string",
          "name": "svg",
          "type": "string"
        }
      ],
      "name": "mint",
      "outputs": [],
      "stateMutability": "nonpayable",
      "type": "function"
    },
    {
      "inputs": [],
      "name": "name",
      "outputs": [
        {
          "internalType": "string",
          "name": "",
          "type": "string"
        }
      ],
      "stateMutability": "view",
      "type": "function"
    },
    {
      "inputs": [],
      "name": "owner",
      "outputs": [
        {
          "internalType": "address",
          "name": "",
          "type": "address"
        }
      ],
      "stateMutability": "view",
      "type": "function"
    },
    {
      "inputs": [
        {
          "internalType": "uint256",
          "name": "tokenId",
          "type": "uint256"
        }
      ],
      "name": "ownerOf",
      "outputs": [
        {
          "internalType": "address",
          "name": "",
          "type": "address"
        }
      ],
      "stateMutability": "view",
      "type": "function"
    },
    {
      "inputs": [],
      "name": "renounceOwnership",
      "outputs": [],
      "stateMutability": "nonpayable",
      "type": "function"
    },
    {
      "inputs": [
        {
          "internalType": "address",
          "name": "from",
          "type": "address"
        },
        {
          "internalType": "address",
          "name": "to",
          "type": "address"
        },
        {
          "internalType": "uint256",
          "name": "tokenId",
          "type": "uint256"
        }
      ],
      "name": "safeTransferFrom",
      "outputs": [],
      "stateMutability": "nonpayable",
      "type": "function"
    },
    {
      "inputs": [
        {
          "internalType": "address",
          "name": "from",
          "type": "address"
        },
        {
          "internalType": "address",
          "name": "to",
          "type": "address"
        },
        {
          "internalType": "uint256",
          "name": "tokenId",
          "type": "uint256"
        },
        {
          "internalType": "bytes",
          "name": "data",
          "type": "bytes"
        }
      ],
      "name": "safeTransferFrom",
      "outputs": [],
      "stateMutability": "nonpayable",
      "type": "function"
    },
    {
      "inputs": [
        {
          "internalType": "address",
          "name": "operator",
          "type": "address"
        },
        {
          "internalType": "bool",
          "name": "approved",
          "type": "bool"
        }
      ],
      "name": "setApprovalForAll",
      "outputs": [],
      "stateMutability": "nonpayable",
      "type": "function"
    },
    {
      "inputs": [
        {
          "internalType": "bytes4",
          "name": "interfaceId",
          "type": "bytes4"
        }
      ],
      "name": "supportsInterface",
      "outputs": [
        {
          "internalType": "bool",
          "name": "",
          "type": "bool"
        }
      ],
      "stateMutability": "view",
      "type": "function"
    },
    {
      "inputs": [
        {
          "internalType": "string",
          "name": "svg",
          "type": "string"
        }
      ],
      "name": "svgToImageURI",
      "outputs": [
        {
          "internalType": "string",
          "name": "",
          "type": "string"
        }
      ],
      "stateMutability": "pure",
      "type": "function"
    },
    {
      "inputs": [],
      "name": "symbol",
      "outputs": [
        {
          "internalType": "string",
          "name": "",
          "type": "string"
        }
      ],
      "stateMutability": "view",
      "type": "function"
    },
    {
      "inputs": [
        {
          "internalType": "uint256",
          "name": "tokenId",
          "type": "uint256"
        }
      ],
      "name": "tokenURI",
      "outputs": [
        {
          "internalType": "string",
          "name": "",
          "type": "string"
        }
      ],
      "stateMutability": "view",
      "type": "function"
    },
    {
      "inputs": [
        {
          "internalType": "address",
          "name": "from",
          "type": "address"
        },
        {
          "internalType": "address",
          "name": "to",
          "type": "address"
        },
        {
          "internalType": "uint256",
          "name": "tokenId",
          "type": "uint256"
        }
      ],
      "name": "transferFrom",
      "outputs": [],
      "stateMutability": "nonpayable",
      "type": "function"
    },
    {
      "inputs": [
        {
          "internalType": "address",
          "name": "newOwner",
          "type": "address"
        }
      ],
      "name": "transferOwnership",
      "outputs": [],
      "stateMutability": "nonpayable",
      "type": "function"
    }
  ],
  "bytecode": "0x60806040523480156200001157600080fd5b506040518060400160405280600881526020017f436861696e4e46540000000000000000000000000000000000000000000000008152506040518060400160405280600381526020017f4f4e43000000000000000000000000000000000000000000000000000000000081525081600090816200008f919062000412565b508060019081620000a1919062000412565b505050620000c4620000b8620000ca60201b60201c565b620000d260201b60201c565b620004f9565b600033905090565b6000600760009054906101000a900473ffffffffffffffffffffffffffffffffffffffff16905081600760006101000a81548173ffffffffffffffffffffffffffffffffffffffff021916908373ffffffffffffffffffffffffffffffffffffffff1602179055508173ffffffffffffffffffffffffffffffffffffffff168173ffffffffffffffffffffffffffffffffffffffff167f8be0079c531659141344cd1fd0a4f28419497f9722a3daafe3b4186f6b6457e060405160405180910390a35050565b600081519050919050565b7f4e487b7100000000000000000000000000000000000000000000000000000000600052604160045260246000fd5b7f4e487b7100000000000000000000000000000000000000000000000000000000600052602260045260246000fd5b600060028204905060018216806200021a57607f821691505b60208210810362000230576200022f620001d2565b5b50919050565b60008190508160005260206000209050919050565b60006020601f8301049050919050565b600082821b905092915050565b6000600883026200029a7fffffffffffffffffffffffffffffffffffffffffffffffffffffffffffffffff826200025b565b620002a686836200025b565b95508019841693508086168417925050509392505050565b6000819050919050565b6000819050919050565b6000620002f3620002ed620002e784620002be565b620002c8565b620002be565b9050919050565b6000819050919050565b6200030f83620002d2565b620003276200031e82620002fa565b84845462000268565b825550505050565b600090565b6200033e6200032f565b6200034b81848462000304565b505050565b5b8181101562000373576200036760008262000334565b60018101905062000351565b5050565b601f821115620003c2576200038c8162000236565b62000397846200024b565b81016020851015620003a7578190505b620003bf620003b6856200024b565b83018262000350565b50505b505050565b600082821c905092915050565b6000620003e760001984600802620003c7565b1980831691505092915050565b6000620004028383620003d4565b9150826002028217905092915050565b6200041d8262000198565b67ffffffffffffffff811115620004395762000438620001a3565b5b62000445825462000201565b6200045282828562000377565b600060209050601f8311600181146200048a576000841562000475578287015190505b620004818582620003f4565b865550620004f1565b601f1984166200049a8662000236565b60005b82811015620004c4578489015182556001820191506020850194506020810190506200049d565b86831015620004e45784890151620004e0601f891682620003d4565b8355505b6001600288020188555050505b505050505050565b61347e80620005096000396000f3fe608060405234801561001057600080fd5b50600436106101215760003560e01c8063715018a6116100ad578063b88d4fde11610071578063b88d4fde1461031a578063c87b56dd14610336578063d85d3d2714610366578063e985e9c514610382578063f2fde38b146103b257610121565b8063715018a61461028857806371aee193146102925780638da5cb5b146102c257806395d89b41146102e0578063a22cb465146102fe57610121565b806323b872dd116100f457806323b872dd146101c057806330d871c6146101dc57806342842e0e1461020c5780636352211e1461022857806370a082311461025857610121565b806301ffc9a71461012657806306fdde0314610156578063081812fc14610174578063095ea7b3146101a4575b600080fd5b610140600480360381019061013b9190611fa5565b6103ce565b60405161014d9190611fed565b60405180910390f35b61015e61042f565b60405161016b9190612098565b60405180910390f35b61018e600480360381019061018991906120f0565b6104c1565b60405161019b919061215e565b60405180910390f35b6101be60048036038101906101b991906121a5565b610507565b005b6101da60048036038101906101d591906121e5565b61061e565b005b6101f660048036038101906101f1919061236d565b61067e565b6040516102039190612098565b60405180910390f35b610226600480360381019061022191906121e5565b6106f2565b005b610242600480360381019061023d91906120f0565b610712565b60405161024f919061215e565b60405180910390f35b610272600480360381019061026d91906123b6565b610798565b60405161027f91906123f2565b60405180910390f35b61029061084f565b005b6102ac60048036038101906102a7919061236d565b610863565b6040516102b99190612098565b60405180910390f35b6102ca6108b3565b6040516102d7919061215e565b60405180910390f35b6102e86108dd565b6040516102f59190612098565b60405180910390f35b61031860048036038101906103139190612439565b61096f565b005b610334600480360381019061032f919061251a565b610985565b005b610350600480360381019061034b91906120f0565b6109e7565b60405161035d9190612098565b60405180910390f35b610380600480360381019061037b919061236d565b610af9565b005b61039c6004803603810190610397919061259d565b610b8b565b6040516103a99190611fed565b60405180910390f35b6103cc60048036038101906103c791906123b6565b610c1f565b005b6000634906490660e01b7bffffffffffffffffffffffffffffffffffffffffffffffffffffffff1916827bffffffffffffffffffffffffffffffffffffffffffffffffffffffff19161480610428575061042782610ca2565b5b9050919050565b60606000805461043e9061260c565b80601f016020809104026020016040519081016040528092919081815260200182805461046a9061260c565b80156104b75780601f1061048c576101008083540402835291602001916104b7565b820191906000526020600020905b81548152906001019060200180831161049a57829003601f168201915b5050505050905090565b60006104cc82610d84565b6004600083815260200190815260200160002060009054906101000a900473ffffffffffffffffffffffffffffffffffffffff169050919050565b600061051282610712565b90508073ffffffffffffffffffffffffffffffffffffffff168373ffffffffffffffffffffffffffffffffffffffff1603610582576040517f08c379a0000000000000000000000000000000000000000000000000000000008152600401610579906126af565b60405180910390fd5b8073ffffffffffffffffffffffffffffffffffffffff166105a1610dcf565b73ffffffffffffffffffffffffffffffffffffffff1614806105d057506105cf816105ca610dcf565b610b8b565b5b61060f576040517f08c379a000000000000000000000000000000000000000000000000000000000815260040161060690612741565b60405180910390fd5b6106198383610dd7565b505050565b61062f610629610dcf565b82610e90565b61066e576040517f08c379a0000000000000000000000000000000000000000000000000000000008152600401610665906127d3565b60405180910390fd5b610679838383610f25565b505050565b606060006040518060400160405280601a81526020017f646174613a696d6167652f7376672b786d6c3b6261736536342c000000000000815250905060006106c58461121e565b905081816040516020016106da92919061282f565b60405160208183030381529060405292505050919050565b61070d83838360405180602001604052806000815250610985565b505050565b60008061071e836113b5565b9050600073ffffffffffffffffffffffffffffffffffffffff168173ffffffffffffffffffffffffffffffffffffffff160361078f576040517f08c379a00000000000000000000000000000000000000000000000000000000081526004016107869061289f565b60405180910390fd5b80915050919050565b60008073ffffffffffffffffffffffffffffffffffffffff168273ffffffffffffffffffffffffffffffffffffffff1603610808576040517f08c379a00000000000000000000000000000000000000000000000000000000081526004016107ff90612931565b60405180910390fd5b600360008373ffffffffffffffffffffffffffffffffffffffff1673ffffffffffffffffffffffffffffffffffffffff168152602001908152602001600020549050919050565b6108576113f2565b6108616000611470565b565b606061088d826040516020016108799190612a35565b60405160208183030381529060405261121e565b60405160200161089d9190612aae565b6040516020818303038152906040529050919050565b6000600760009054906101000a900473ffffffffffffffffffffffffffffffffffffffff16905090565b6060600180546108ec9061260c565b80601f01602080910402602001604051908101604052809291908181526020018280546109189061260c565b80156109655780601f1061093a57610100808354040283529160200191610965565b820191906000526020600020905b81548152906001019060200180831161094857829003601f168201915b5050505050905090565b61098161097a610dcf565b8383611536565b5050565b610996610990610dcf565b83610e90565b6109d5576040517f08c379a00000000000000000000000000000000000000000000000000000000081526004016109cc906127d3565b60405180910390fd5b6109e1848484846116a2565b50505050565b60606109f282610d84565b6000600660008481526020019081526020016000208054610a129061260c565b80601f0160208091040260200160405190810160405280929190818152602001828054610a3e9061260c565b8015610a8b5780601f10610a6057610100808354040283529160200191610a8b565b820191906000526020600020905b815481529060010190602001808311610a6e57829003601f168201915b505050505090506000610a9c6116fe565b90506000815103610ab1578192505050610af4565b600082511115610ae6578082604051602001610ace92919061282f565b60405160208183030381529060405292505050610af4565b610aef84611715565b925050505b919050565b610b016113f2565b6000610b0c8261067e565b90506000610b1982610863565b905060086000815480929190610b2e90612aff565b919050555060006008549050610b44338261177d565b610b4e818361179b565b7f176b02bb2d12439ff7a20b59f402cca16c76f50508b13ef3166a600eb719354a81604051610b7d91906123f2565b60405180910390a150505050565b6000600560008473ffffffffffffffffffffffffffffffffffffffff1673ffffffffffffffffffffffffffffffffffffffff16815260200190815260200160002060008373ffffffffffffffffffffffffffffffffffffffff1673ffffffffffffffffffffffffffffffffffffffff16815260200190815260200160002060009054906101000a900460ff16905092915050565b610c276113f2565b600073ffffffffffffffffffffffffffffffffffffffff168173ffffffffffffffffffffffffffffffffffffffff1603610c96576040517f08c379a0000000000000000000000000000000000000000000000000000000008152600401610c8d90612bb9565b60405180910390fd5b610c9f81611470565b50565b60007f80ac58cd000000000000000000000000000000000000000000000000000000007bffffffffffffffffffffffffffffffffffffffffffffffffffffffff1916827bffffffffffffffffffffffffffffffffffffffffffffffffffffffff19161480610d6d57507f5b5e139f000000000000000000000000000000000000000000000000000000007bffffffffffffffffffffffffffffffffffffffffffffffffffffffff1916827bffffffffffffffffffffffffffffffffffffffffffffffffffffffff1916145b80610d7d5750610d7c8261183f565b5b9050919050565b610d8d816118a9565b610dcc576040517f08c379a0000000000000000000000000000000000000000000000000000000008152600401610dc39061289f565b60405180910390fd5b50565b600033905090565b816004600083815260200190815260200160002060006101000a81548173ffffffffffffffffffffffffffffffffffffffff021916908373ffffffffffffffffffffffffffffffffffffffff160217905550808273ffffffffffffffffffffffffffffffffffffffff16610e4a83610712565b73ffffffffffffffffffffffffffffffffffffffff167f8c5be1e5ebec7d5bd14f71427d1e84f3dd0314c0f7b2291e5b200ac8c7c3b92560405160405180910390a45050565b600080610e9c83610712565b90508073ffffffffffffffffffffffffffffffffffffffff168473ffffffffffffffffffffffffffffffffffffffff161480610ede5750610edd8185610b8b565b5b80610f1c57508373ffffffffffffffffffffffffffffffffffffffff16610f04846104c1565b73ffffffffffffffffffffffffffffffffffffffff16145b91505092915050565b8273ffffffffffffffffffffffffffffffffffffffff16610f4582610712565b73ffffffffffffffffffffffffffffffffffffffff1614610f9b576040517f08c379a0000000000000000000000000000000000000000000000000000000008152600401610f9290612c4b565b60405180910390fd5b600073ffffffffffffffffffffffffffffffffffffffff168273ffffffffffffffffffffffffffffffffffffffff160361100a576040517f08c379a000000000000000000000000000000000000000000000000000000000815260040161100190612cdd565b60405180910390fd5b61101783838360016118ea565b8273ffffffffffffffffffffffffffffffffffffffff1661103782610712565b73ffffffffffffffffffffffffffffffffffffffff161461108d576040517f08c379a000000000000000000000000000000000000000000000000000000000815260040161108490612c4b565b60405180910390fd5b6004600082815260200190815260200160002060006101000a81549073ffffffffffffffffffffffffffffffffffffffff02191690556001600360008573ffffffffffffffffffffffffffffffffffffffff1673ffffffffffffffffffffffffffffffffffffffff168152602001908152602001600020600082825403925050819055506001600360008473ffffffffffffffffffffffffffffffffffffffff1673ffffffffffffffffffffffffffffffffffffffff16815260200190815260200160002060008282540192505081905550816002600083815260200190815260200160002060006101000a81548173ffffffffffffffffffffffffffffffffffffffff021916908373ffffffffffffffffffffffffffffffffffffffff160217905550808273ffffffffffffffffffffffffffffffffffffffff168473ffffffffffffffffffffffffffffffffffffffff167fddf252ad1be2c89b69c2b068fc378daa952ba7f163c4a11628f55a4df523b3ef60405160405180910390a461121983838360016118f0565b505050565b60606000825190506000810361124657604051806020016040528060008152509150506113b0565b600060036002836112579190612cfd565b6112619190612d60565b600461126d9190612d91565b9050600060208261127e9190612cfd565b67ffffffffffffffff81111561129757611296612242565b5b6040519080825280601f01601f1916602001820160405280156112c95781602001600182028036833780820191505090505b5090506000604051806060016040528060408152602001613409604091399050600181016020830160005b8681101561136d5760038101905062ffffff818a015116603f8160121c168401518060081b905060ff603f83600c1c1686015116810190508060081b905060ff603f8360061c1686015116810190508060081b905060ff603f831686015116810190508060e01b905080845260048401935050506112f4565b5060038606600181146113875760028114611397576113a2565b613d3d60f01b60028303526113a2565b603d60f81b60018303525b508484525050819450505050505b919050565b60006002600083815260200190815260200160002060009054906101000a900473ffffffffffffffffffffffffffffffffffffffff169050919050565b6113fa610dcf565b73ffffffffffffffffffffffffffffffffffffffff166114186108b3565b73ffffffffffffffffffffffffffffffffffffffff161461146e576040517f08c379a000000000000000000000000000000000000000000000000000000000815260040161146590612e1f565b60405180910390fd5b565b6000600760009054906101000a900473ffffffffffffffffffffffffffffffffffffffff16905081600760006101000a81548173ffffffffffffffffffffffffffffffffffffffff021916908373ffffffffffffffffffffffffffffffffffffffff1602179055508173ffffffffffffffffffffffffffffffffffffffff168173ffffffffffffffffffffffffffffffffffffffff167f8be0079c531659141344cd1fd0a4f28419497f9722a3daafe3b4186f6b6457e060405160405180910390a35050565b8173ffffffffffffffffffffffffffffffffffffffff168373ffffffffffffffffffffffffffffffffffffffff16036115a4576040517f08c379a000000000000000000000000000000000000000000000000000000000815260040161159b90612e8b565b60405180910390fd5b80600560008573ffffffffffffffffffffffffffffffffffffffff1673ffffffffffffffffffffffffffffffffffffffff16815260200190815260200160002060008473ffffffffffffffffffffffffffffffffffffffff1673ffffffffffffffffffffffffffffffffffffffff16815260200190815260200160002060006101000a81548160ff0219169083151502179055508173ffffffffffffffffffffffffffffffffffffffff168373ffffffffffffffffffffffffffffffffffffffff167f17307eab39ab6107e8899845ad3d59bd9653f200f220920489ca2b5937696c31836040516116959190611fed565b60405180910390a3505050565b6116ad848484610f25565b6116b9848484846118f6565b6116f8576040517f08c379a00000000000000000000000000000000000000000000000000000000081526004016116ef90612f1d565b60405180910390fd5b50505050565b606060405180602001604052806000815250905090565b606061172082610d84565b600061172a6116fe565b9050600081511161174a5760405180602001604052806000815250611775565b8061175484611a7d565b60405160200161176592919061282f565b6040516020818303038152906040525b915050919050565b611797828260405180602001604052806000815250611b4b565b5050565b6117a4826118a9565b6117e3576040517f08c379a00000000000000000000000000000000000000000000000000000000081526004016117da90612faf565b60405180910390fd5b80600660008481526020019081526020016000209081611803919061317b565b507ff8e1a15aba9398e019f0b49df1a4fde98ee17ae345cb5f6b5e2c27f5033e8ce78260405161183391906123f2565b60405180910390a15050565b60007f01ffc9a7000000000000000000000000000000000000000000000000000000007bffffffffffffffffffffffffffffffffffffffffffffffffffffffff1916827bffffffffffffffffffffffffffffffffffffffffffffffffffffffff1916149050919050565b60008073ffffffffffffffffffffffffffffffffffffffff166118cb836113b5565b73ffffffffffffffffffffffffffffffffffffffff1614159050919050565b50505050565b50505050565b60006119178473ffffffffffffffffffffffffffffffffffffffff16611ba6565b15611a70578373ffffffffffffffffffffffffffffffffffffffff1663150b7a02611940610dcf565b8786866040518563ffffffff1660e01b815260040161196294939291906132a2565b6020604051808303816000875af192505050801561199e57506040513d601f19601f8201168201806040525081019061199b9190613303565b60015b611a20573d80600081146119ce576040519150601f19603f3d011682016040523d82523d6000602084013e6119d3565b606091505b506000815103611a18576040517f08c379a0000000000000000000000000000000000000000000000000000000008152600401611a0f90612f1d565b60405180910390fd5b805181602001fd5b63150b7a0260e01b7bffffffffffffffffffffffffffffffffffffffffffffffffffffffff1916817bffffffffffffffffffffffffffffffffffffffffffffffffffffffff191614915050611a75565b600190505b949350505050565b606060006001611a8c84611bc9565b01905060008167ffffffffffffffff811115611aab57611aaa612242565b5b6040519080825280601f01601f191660200182016040528015611add5781602001600182028036833780820191505090505b509050600082602001820190505b600115611b40578080600190039150507f3031323334353637383961626364656600000000000000000000000000000000600a86061a8153600a8581611b3457611b33612d31565b5b04945060008503611aeb575b819350505050919050565b611b558383611d1c565b611b6260008484846118f6565b611ba1576040517f08c379a0000000000000000000000000000000000000000000000000000000008152600401611b9890612f1d565b60405180910390fd5b505050565b6000808273ffffffffffffffffffffffffffffffffffffffff163b119050919050565b600080600090507a184f03e93ff9f4daa797ed6e38ed64bf6a1f0100000000000000008310611c27577a184f03e93ff9f4daa797ed6e38ed64bf6a1f0100000000000000008381611c1d57611c1c612d31565b5b0492506040810190505b6d04ee2d6d415b85acef81000000008310611c64576d04ee2d6d415b85acef81000000008381611c5a57611c59612d31565b5b0492506020810190505b662386f26fc100008310611c9357662386f26fc100008381611c8957611c88612d31565b5b0492506010810190505b6305f5e1008310611cbc576305f5e1008381611cb257611cb1612d31565b5b0492506008810190505b6127108310611ce1576127108381611cd757611cd6612d31565b5b0492506004810190505b60648310611d045760648381611cfa57611cf9612d31565b5b0492506002810190505b600a8310611d13576001810190505b80915050919050565b600073ffffffffffffffffffffffffffffffffffffffff168273ffffffffffffffffffffffffffffffffffffffff1603611d8b576040517f08c379a0000000000000000000000000000000000000000000000000000000008152600401611d829061337c565b60405180910390fd5b611d94816118a9565b15611dd4576040517f08c379a0000000000000000000000000000000000000000000000000000000008152600401611dcb906133e8565b60405180910390fd5b611de26000838360016118ea565b611deb816118a9565b15611e2b576040517f08c379a0000000000000000000000000000000000000000000000000000000008152600401611e22906133e8565b60405180910390fd5b6001600360008473ffffffffffffffffffffffffffffffffffffffff1673ffffffffffffffffffffffffffffffffffffffff16815260200190815260200160002060008282540192505081905550816002600083815260200190815260200160002060006101000a81548173ffffffffffffffffffffffffffffffffffffffff021916908373ffffffffffffffffffffffffffffffffffffffff160217905550808273ffffffffffffffffffffffffffffffffffffffff16600073ffffffffffffffffffffffffffffffffffffffff167fddf252ad1be2c89b69c2b068fc378daa952ba7f163c4a11628f55a4df523b3ef60405160405180910390a4611f356000838360016118f0565b5050565b6000604051905090565b600080fd5b600080fd5b60007fffffffff0000000000000000000000000000000000000000000000000000000082169050919050565b611f8281611f4d565b8114611f8d57600080fd5b50565b600081359050611f9f81611f79565b92915050565b600060208284031215611fbb57611fba611f43565b5b6000611fc984828501611f90565b91505092915050565b60008115159050919050565b611fe781611fd2565b82525050565b60006020820190506120026000830184611fde565b92915050565b600081519050919050565b600082825260208201905092915050565b60005b83811015612042578082015181840152602081019050612027565b60008484015250505050565b6000601f19601f8301169050919050565b600061206a82612008565b6120748185612013565b9350612084818560208601612024565b61208d8161204e565b840191505092915050565b600060208201905081810360008301526120b2818461205f565b905092915050565b6000819050919050565b6120cd816120ba565b81146120d857600080fd5b50565b6000813590506120ea816120c4565b92915050565b60006020828403121561210657612105611f43565b5b6000612114848285016120db565b91505092915050565b600073ffffffffffffffffffffffffffffffffffffffff82169050919050565b60006121488261211d565b9050919050565b6121588161213d565b82525050565b6000602082019050612173600083018461214f565b92915050565b6121828161213d565b811461218d57600080fd5b50565b60008135905061219f81612179565b92915050565b600080604083850312156121bc576121bb611f43565b5b60006121ca85828601612190565b92505060206121db858286016120db565b9150509250929050565b6000806000606084860312156121fe576121fd611f43565b5b600061220c86828701612190565b935050602061221d86828701612190565b925050604061222e868287016120db565b9150509250925092565b600080fd5b600080fd5b7f4e487b7100000000000000000000000000000000000000000000000000000000600052604160045260246000fd5b61227a8261204e565b810181811067ffffffffffffffff8211171561229957612298612242565b5b80604052505050565b60006122ac611f39565b90506122b88282612271565b919050565b600067ffffffffffffffff8211156122d8576122d7612242565b5b6122e18261204e565b9050602081019050919050565b82818337600083830152505050565b600061231061230b846122bd565b6122a2565b90508281526020810184848401111561232c5761232b61223d565b5b6123378482856122ee565b509392505050565b600082601f83011261235457612353612238565b5b81356123648482602086016122fd565b91505092915050565b60006020828403121561238357612382611f43565b5b600082013567ffffffffffffffff8111156123a1576123a0611f48565b5b6123ad8482850161233f565b91505092915050565b6000602082840312156123cc576123cb611f43565b5b60006123da84828501612190565b91505092915050565b6123ec816120ba565b82525050565b600060208201905061240760008301846123e3565b92915050565b61241681611fd2565b811461242157600080fd5b50565b6000813590506124338161240d565b92915050565b600080604083850312156124505761244f611f43565b5b600061245e85828601612190565b925050602061246f85828601612424565b9150509250929050565b600067ffffffffffffffff82111561249457612493612242565b5b61249d8261204e565b9050602081019050919050565b60006124bd6124b884612479565b6122a2565b9050828152602081018484840111156124d9576124d861223d565b5b6124e48482856122ee565b509392505050565b600082601f83011261250157612500612238565b5b81356125118482602086016124aa565b91505092915050565b6000806000806080858703121561253457612533611f43565b5b600061254287828801612190565b945050602061255387828801612190565b9350506040612564878288016120db565b925050606085013567ffffffffffffffff81111561258557612584611f48565b5b612591878288016124ec565b91505092959194509250565b600080604083850312156125b4576125b3611f43565b5b60006125c285828601612190565b92505060206125d385828601612190565b9150509250929050565b7f4e487b7100000000000000000000000000000000000000000000000000000000600052602260045260246000fd5b6000600282049050600182168061262457607f821691505b602082108103612637576126366125dd565b5b50919050565b7f4552433732313a20617070726f76616c20746f2063757272656e74206f776e6560008201527f7200000000000000000000000000000000000000000000000000000000000000602082015250565b6000612699602183612013565b91506126a48261263d565b604082019050919050565b600060208201905081810360008301526126c88161268c565b9050919050565b7f4552433732313a20617070726f76652063616c6c6572206973206e6f7420746f60008201527f6b656e206f776e6572206f7220617070726f76656420666f7220616c6c000000602082015250565b600061272b603d83612013565b9150612736826126cf565b604082019050919050565b6000602082019050818103600083015261275a8161271e565b9050919050565b7f4552433732313a2063616c6c6572206973206e6f7420746f6b656e206f776e6560008201527f72206f7220617070726f76656400000000000000000000000000000000000000602082015250565b60006127bd602d83612013565b91506127c882612761565b604082019050919050565b600060208201905081810360008301526127ec816127b0565b9050919050565b600081905092915050565b600061280982612008565b61281381856127f3565b9350612823818560208601612024565b80840191505092915050565b600061283b82856127fe565b915061284782846127fe565b91508190509392505050565b7f4552433732313a20696e76616c696420746f6b656e2049440000000000000000600082015250565b6000612889601883612013565b915061289482612853565b602082019050919050565b600060208201905081810360008301526128b88161287c565b9050919050565b7f4552433732313a2061646472657373207a65726f206973206e6f74206120766160008201527f6c6964206f776e65720000000000000000000000000000000000000000000000602082015250565b600061291b602983612013565b9150612926826128bf565b604082019050919050565b6000602082019050818103600083015261294a8161290e565b9050919050565b7f7b226e616d65223a20224c434d204f4e2d434841494e4544222c20226465736360008201527f72697074696f6e223a2022412073696d706c6520535647206261736564206f6e60208201527f2d636861696e204e4654222c2022696d616765223a2200000000000000000000604082015250565b60006129d36056836127f3565b91506129de82612951565b605682019050919050565b7f227d000000000000000000000000000000000000000000000000000000000000600082015250565b6000612a1f6002836127f3565b9150612a2a826129e9565b600282019050919050565b6000612a40826129c6565b9150612a4c82846127fe565b9150612a5782612a12565b915081905092915050565b7f646174613a6170706c69636174696f6e2f6a736f6e3b6261736536342c000000600082015250565b6000612a98601d836127f3565b9150612aa382612a62565b601d82019050919050565b6000612ab982612a8b565b9150612ac582846127fe565b915081905092915050565b7f4e487b7100000000000000000000000000000000000000000000000000000000600052601160045260246000fd5b6000612b0a826120ba565b91507fffffffffffffffffffffffffffffffffffffffffffffffffffffffffffffffff8203612b3c57612b3b612ad0565b5b600182019050919050565b7f4f776e61626c653a206e6577206f776e657220697320746865207a65726f206160008201527f6464726573730000000000000000000000000000000000000000000000000000602082015250565b6000612ba3602683612013565b9150612bae82612b47565b604082019050919050565b60006020820190508181036000830152612bd281612b96565b9050919050565b7f4552433732313a207472616e736665722066726f6d20696e636f72726563742060008201527f6f776e6572000000000000000000000000000000000000000000000000000000602082015250565b6000612c35602583612013565b9150612c4082612bd9565b604082019050919050565b60006020820190508181036000830152612c6481612c28565b9050919050565b7f4552433732313a207472616e7366657220746f20746865207a65726f2061646460008201527f7265737300000000000000000000000000000000000000000000000000000000602082015250565b6000612cc7602483612013565b9150612cd282612c6b565b604082019050919050565b60006020820190508181036000830152612cf681612cba565b9050919050565b6000612d08826120ba565b9150612d13836120ba565b9250828201905080821115612d2b57612d2a612ad0565b5b92915050565b7f4e487b7100000000000000000000000000000000000000000000000000000000600052601260045260246000fd5b6000612d6b826120ba565b9150612d76836120ba565b925082612d8657612d85612d31565b5b828204905092915050565b6000612d9c826120ba565b9150612da7836120ba565b9250828202612db5816120ba565b91508282048414831517612dcc57612dcb612ad0565b5b5092915050565b7f4f776e61626c653a2063616c6c6572206973206e6f7420746865206f776e6572600082015250565b6000612e09602083612013565b9150612e1482612dd3565b602082019050919050565b60006020820190508181036000830152612e3881612dfc565b9050919050565b7f4552433732313a20617070726f766520746f2063616c6c657200000000000000600082015250565b6000612e75601983612013565b9150612e8082612e3f565b602082019050919050565b60006020820190508181036000830152612ea481612e68565b9050919050565b7f4552433732313a207472616e7366657220746f206e6f6e20455243373231526560008201527f63656976657220696d706c656d656e7465720000000000000000000000000000602082015250565b6000612f07603283612013565b9150612f1282612eab565b604082019050919050565b60006020820190508181036000830152612f3681612efa565b9050919050565b7f45524337323155524953746f726167653a2055524920736574206f66206e6f6e60008201527f6578697374656e7420746f6b656e000000000000000000000000000000000000602082015250565b6000612f99602e83612013565b9150612fa482612f3d565b604082019050919050565b60006020820190508181036000830152612fc881612f8c565b9050919050565b60008190508160005260206000209050919050565b60006020601f8301049050919050565b600082821b905092915050565b6000600883026130317fffffffffffffffffffffffffffffffffffffffffffffffffffffffffffffffff82612ff4565b61303b8683612ff4565b95508019841693508086168417925050509392505050565b6000819050919050565b600061307861307361306e846120ba565b613053565b6120ba565b9050919050565b6000819050919050565b6130928361305d565b6130a661309e8261307f565b848454613001565b825550505050565b600090565b6130bb6130ae565b6130c6818484613089565b505050565b5b818110156130ea576130df6000826130b3565b6001810190506130cc565b5050565b601f82111561312f5761310081612fcf565b61310984612fe4565b81016020851015613118578190505b61312c61312485612fe4565b8301826130cb565b50505b505050565b600082821c905092915050565b600061315260001984600802613134565b1980831691505092915050565b600061316b8383613141565b9150826002028217905092915050565b61318482612008565b67ffffffffffffffff81111561319d5761319c612242565b5b6131a7825461260c565b6131b28282856130ee565b600060209050601f8311600181146131e557600084156131d3578287015190505b6131dd858261315f565b865550613245565b601f1984166131f386612fcf565b60005b8281101561321b578489015182556001820191506020850194506020810190506131f6565b868310156132385784890151613234601f891682613141565b8355505b6001600288020188555050505b505050505050565b600081519050919050565b600082825260208201905092915050565b60006132748261324d565b61327e8185613258565b935061328e818560208601612024565b6132978161204e565b840191505092915050565b60006080820190506132b7600083018761214f565b6132c4602083018661214f565b6132d160408301856123e3565b81810360608301526132e38184613269565b905095945050505050565b6000815190506132fd81611f79565b92915050565b60006020828403121561331957613318611f43565b5b6000613327848285016132ee565b91505092915050565b7f4552433732313a206d696e7420746f20746865207a65726f2061646472657373600082015250565b6000613366602083612013565b915061337182613330565b602082019050919050565b6000602082019050818103600083015261339581613359565b9050919050565b7f4552433732313a20746f6b656e20616c7265616479206d696e74656400000000600082015250565b60006133d2601c83612013565b91506133dd8261339c565b602082019050919050565b60006020820190508181036000830152613401816133c5565b905091905056fe4142434445464748494a4b4c4d4e4f505152535455565758595a6162636465666768696a6b6c6d6e6f707172737475767778797a303132333435363738392b2fa2646970667358221220a82d5ad5b6f807ee657a14328a03fbc85ec2a19fce2f4690f16633a689235c3364736f6c63430008140033",
  "linkReferences": {},
  "deployedLinkReferences": {}
}